{
  "_format": "hh-sol-artifact-1",
  "contractName": "Library",
  "sourceName": "contracts/Library.sol",
  "abi": [
    {
      "anonymous": false,
      "inputs": [
        {
          "indexed": false,
          "internalType": "address",
          "name": "recipient",
          "type": "address"
        },
        {
          "indexed": false,
          "internalType": "uint256",
          "name": "bookId",
          "type": "uint256"
        }
      ],
      "name": "AddBook",
      "type": "event"
    },
    {
      "anonymous": false,
      "inputs": [
        {
          "indexed": false,
          "internalType": "address",
          "name": "recipient",
          "type": "address"
        },
        {
          "indexed": false,
          "internalType": "uint256",
          "name": "bookId",
          "type": "uint256"
        }
      ],
      "name": "SetFinished",
      "type": "event"
    },
    {
      "inputs": [
        {
          "internalType": "string",
          "name": "name",
          "type": "string"
        },
        {
          "internalType": "string",
          "name": "author",
          "type": "string"
        },
        {
          "internalType": "uint256",
          "name": "year",
          "type": "uint256"
        },
        {
          "internalType": "bool",
          "name": "finished",
          "type": "bool"
        }
      ],
      "name": "addBook",
      "outputs": [],
      "stateMutability": "nonpayable",
      "type": "function"
    },
    {
      "inputs": [],
      "name": "getUnfinishedBooks",
      "outputs": [
        {
          "components": [
            {
              "internalType": "uint256",
              "name": "id",
              "type": "uint256"
            },
            {
              "internalType": "string",
              "name": "name",
              "type": "string"
            },
            {
              "internalType": "string",
              "name": "author",
              "type": "string"
            },
            {
              "internalType": "uint256",
              "name": "year",
              "type": "uint256"
            },
            {
              "internalType": "bool",
              "name": "finished",
              "type": "bool"
            }
          ],
          "internalType": "struct Library.Book[]",
          "name": "",
          "type": "tuple[]"
        }
      ],
      "stateMutability": "view",
      "type": "function"
    },
    {
      "inputs": [],
      "name": "getfinishedBooks",
      "outputs": [
        {
          "components": [
            {
              "internalType": "uint256",
              "name": "id",
              "type": "uint256"
            },
            {
              "internalType": "string",
              "name": "name",
              "type": "string"
            },
            {
              "internalType": "string",
              "name": "author",
              "type": "string"
            },
            {
              "internalType": "uint256",
              "name": "year",
              "type": "uint256"
            },
            {
              "internalType": "bool",
              "name": "finished",
              "type": "bool"
            }
          ],
          "internalType": "struct Library.Book[]",
          "name": "",
          "type": "tuple[]"
        }
      ],
      "stateMutability": "view",
      "type": "function"
    },
    {
      "inputs": [
        {
          "internalType": "uint256",
          "name": "bookId",
          "type": "uint256"
        }
      ],
      "name": "setFinished",
      "outputs": [],
      "stateMutability": "nonpayable",
      "type": "function"
    }
  ],
  "bytecode": "0x608060405234801561001057600080fd5b50610f96806100206000396000f3fe608060405234801561001057600080fd5b506004361061004c5760003560e01c806331c1d59c14610051578063924498661461006f578063ac30064c1461008b578063f2bc01ff146100a7575b600080fd5b6100596100c5565b60405161006691906108d4565b60405180910390f35b61008960048036038101906100849190610936565b6100d6565b005b6100a560048036038101906100a09190610ac4565b6101b7565b005b6100af610308565b6040516100bc91906108d4565b60405180910390f35b60606100d16001610319565b905090565b3373ffffffffffffffffffffffffffffffffffffffff166001600083815260200190815260200160002060009054906101000a900473ffffffffffffffffffffffffffffffffffffffff1673ffffffffffffffffffffffffffffffffffffffff16036101b45760016000828154811061015257610151610b63565b5b906000526020600020906005020160040160006101000a81548160ff0219169083151502179055507f9ecaf08561f5c1e77df9aecb130a3914b31019e56c6d5a42adae588f9c6dcbd633826040516101ab929190610be2565b60405180910390a15b50565b60008080549050905060006040518060a0016040528083815260200187815260200186815260200185815260200184151581525090806001815401808255809150506001900390600052602060002090600502016000909190919091506000820151816000015560208201518160010190816102339190610e17565b5060408201518160020190816102499190610e17565b506060820151816003015560808201518160040160006101000a81548160ff0219169083151502179055505050336001600083815260200190815260200160002060006101000a81548173ffffffffffffffffffffffffffffffffffffffff021916908373ffffffffffffffffffffffffffffffffffffffff1602179055507f10545577c692a22f651e69221c47ad4418e40434b36f4e2411bc54007aa8cbb933826040516102f9929190610be2565b60405180910390a15050505050565b60606103146000610319565b905090565b60606000808054905067ffffffffffffffff81111561033b5761033a61096d565b5b60405190808252806020026020018201604052801561037457816020015b6103616106a0565b8152602001906001900390816103595790505b5090506000805b6000805490508110156105ea573373ffffffffffffffffffffffffffffffffffffffff166001600083815260200190815260200160002060009054906101000a900473ffffffffffffffffffffffffffffffffffffffff1673ffffffffffffffffffffffffffffffffffffffff1614801561042b57508415156000828154811061040857610407610b63565b5b906000526020600020906005020160040160009054906101000a900460ff161515145b156105dd576000818154811061044457610443610b63565b5b90600052602060002090600502016040518060a00160405290816000820154815260200160018201805461047790610c3a565b80601f01602080910402602001604051908101604052809291908181526020018280546104a390610c3a565b80156104f05780601f106104c5576101008083540402835291602001916104f0565b820191906000526020600020905b8154815290600101906020018083116104d357829003601f168201915b5050505050815260200160028201805461050990610c3a565b80601f016020809104026020016040519081016040528092919081815260200182805461053590610c3a565b80156105825780601f1061055757610100808354040283529160200191610582565b820191906000526020600020905b81548152906001019060200180831161056557829003601f168201915b50505050508152602001600382015481526020016004820160009054906101000a900460ff1615151515815250508383815181106105c3576105c2610b63565b5b602002602001018190525081806105d990610f18565b9250505b808060010191505061037b565b5060008167ffffffffffffffff8111156106075761060661096d565b5b60405190808252806020026020018201604052801561064057816020015b61062d6106a0565b8152602001906001900390816106255790505b50905060005b828110156106945783818151811061066157610660610b63565b5b602002602001015182828151811061067c5761067b610b63565b5b60200260200101819052508080600101915050610646565b50809350505050919050565b6040518060a00160405280600081526020016060815260200160608152602001600081526020016000151581525090565b600081519050919050565b600082825260208201905092915050565b6000819050602082019050919050565b6000819050919050565b610710816106fd565b82525050565b600081519050919050565b600082825260208201905092915050565b60005b83811015610750578082015181840152602081019050610735565b60008484015250505050565b6000601f19601f8301169050919050565b600061077882610716565b6107828185610721565b9350610792818560208601610732565b61079b8161075c565b840191505092915050565b60008115159050919050565b6107bb816107a6565b82525050565b600060a0830160008301516107d96000860182610707565b50602083015184820360208601526107f1828261076d565b9150506040830151848203604086015261080b828261076d565b91505060608301516108206060860182610707565b50608083015161083360808601826107b2565b508091505092915050565b600061084a83836107c1565b905092915050565b6000602082019050919050565b600061086a826106d1565b61087481856106dc565b935083602082028501610886856106ed565b8060005b858110156108c257848403895281516108a3858261083e565b94506108ae83610852565b925060208a0199505060018101905061088a565b50829750879550505050505092915050565b600060208201905081810360008301526108ee818461085f565b905092915050565b6000604051905090565b600080fd5b600080fd5b610913816106fd565b811461091e57600080fd5b50565b6000813590506109308161090a565b92915050565b60006020828403121561094c5761094b610900565b5b600061095a84828501610921565b91505092915050565b600080fd5b600080fd5b7f4e487b7100000000000000000000000000000000000000000000000000000000600052604160045260246000fd5b6109a58261075c565b810181811067ffffffffffffffff821117156109c4576109c361096d565b5b80604052505050565b60006109d76108f6565b90506109e3828261099c565b919050565b600067ffffffffffffffff821115610a0357610a0261096d565b5b610a0c8261075c565b9050602081019050919050565b82818337600083830152505050565b6000610a3b610a36846109e8565b6109cd565b905082815260208101848484011115610a5757610a56610968565b5b610a62848285610a19565b509392505050565b600082601f830112610a7f57610a7e610963565b5b8135610a8f848260208601610a28565b91505092915050565b610aa1816107a6565b8114610aac57600080fd5b50565b600081359050610abe81610a98565b92915050565b60008060008060808587031215610ade57610add610900565b5b600085013567ffffffffffffffff811115610afc57610afb610905565b5b610b0887828801610a6a565b945050602085013567ffffffffffffffff811115610b2957610b28610905565b5b610b3587828801610a6a565b9350506040610b4687828801610921565b9250506060610b5787828801610aaf565b91505092959194509250565b7f4e487b7100000000000000000000000000000000000000000000000000000000600052603260045260246000fd5b600073ffffffffffffffffffffffffffffffffffffffff82169050919050565b6000610bbd82610b92565b9050919050565b610bcd81610bb2565b82525050565b610bdc816106fd565b82525050565b6000604082019050610bf76000830185610bc4565b610c046020830184610bd3565b9392505050565b7f4e487b7100000000000000000000000000000000000000000000000000000000600052602260045260246000fd5b60006002820490506001821680610c5257607f821691505b602082108103610c6557610c64610c0b565b5b50919050565b60008190508160005260206000209050919050565b60006020601f8301049050919050565b600082821b905092915050565b600060088302610ccd7fffffffffffffffffffffffffffffffffffffffffffffffffffffffffffffffff82610c90565b610cd78683610c90565b95508019841693508086168417925050509392505050565b6000819050919050565b6000610d14610d0f610d0a846106fd565b610cef565b6106fd565b9050919050565b6000819050919050565b610d2e83610cf9565b610d42610d3a82610d1b565b848454610c9d565b825550505050565b600090565b610d57610d4a565b610d62818484610d25565b505050565b5b81811015610d8657610d7b600082610d4f565b600181019050610d68565b5050565b601f821115610dcb57610d9c81610c6b565b610da584610c80565b81016020851015610db4578190505b610dc8610dc085610c80565b830182610d67565b50505b505050565b600082821c905092915050565b6000610dee60001984600802610dd0565b1980831691505092915050565b6000610e078383610ddd565b9150826002028217905092915050565b610e2082610716565b67ffffffffffffffff811115610e3957610e3861096d565b5b610e438254610c3a565b610e4e828285610d8a565b600060209050601f831160018114610e815760008415610e6f578287015190505b610e798582610dfb565b865550610ee1565b601f198416610e8f86610c6b565b60005b82811015610eb757848901518255600182019150602085019450602081019050610e92565b86831015610ed45784890151610ed0601f891682610ddd565b8355505b6001600288020188555050505b505050505050565b7f4e487b7100000000000000000000000000000000000000000000000000000000600052601160045260246000fd5b6000610f23826106fd565b91507fffffffffffffffffffffffffffffffffffffffffffffffffffffffffffffffff8203610f5557610f54610ee9565b5b60018201905091905056fea26469706673582212204bcd0b0eaa5fbdc7c78ed36ac5a48cb79117e9c2d5041847dd9b2e85ac4ede6d64736f6c63430008180033",
  "linkReferences": {},
  "deployedLinkReferences": {}
}